:100000000C9446000C9465000C9465000C946500FB
:100010000C9465000C9465000C9465000C946500CC
:100020000C9465000C94AB0A0C9465000C9465006C
:100030000C9465000C9465000C9465000C946500AC
:100040000C9442040C9465000C9465000C946500BB
:100050000C94D80A0C94590C0C94370C0C94650031
:100060000C9465000C9465000C9465000C9465007C
:100070000C94BD060C94BD070C9465000C946500AF
:100080000C9465000C9465000C94650011241FBE4F
:10009000CFEFD0E4DEBFCDBF11E0A0E0B1E0E0EAF9
:1000A000FDE100E00BBF02C007900D92A432B10742
:1000B000D9F721E1A4E2B1E001C01D92A83AB2074C
:1000C000E1F70E94F8040C94CE0E0C9400002B9AD9
:1000D00008952B980895813061F048F0823019F02E
:1000E000833019F00895299A0895289A08950C9458
:1000F00067002A9A0895813061F048F0823019F043
:10010000833019F0089529980895289808950C943B
:1001100069002A980895FB018083809131018183D1
:1001200080912E018823F9F084E1828386E785831C
:1001300080E886838EEC87838AEA80878CE98187D2
:1001400081E08287138688E5848780E5858782E55C
:10015000868785E4878793E5908B9EE4918B828BDD
:1001600084E5838B089583E1828386E7858380E835
:1001700086838EEC87838AEA80878CE9818781E099
:100180008287138683E4848781E4858782E4868777
:1001900090E29787808B85E5818B83E5828B80E277
:1001A000838B0895FC018091310181838FEF8083DF
:1001B00082E1828384E5858316821782108680918E
:1001C00030018187A7E7B9E012968C911297828758
:1001D00011968C91119783878C918487809101016E
:1001E00090910201958786871786108A118A089553
:1001F000CF93DF93EC0180912E018823D1F084EE20
:100200008093800983E180938109D0938209C09310
:1002100083096093840945E060E879E082EA99E027
:100220000E946A0DD0933301C0933201DF91CF91C8
:100230000895962F9F776078913041F19E01220FAB
:10024000232F221F330B31952F77209380092C2FDA
:100250002F7720938109611117C023E02093820931
:10026000992311F08FEF890F8093830944E060E8B0
:1002700079E082EA99E00E946A0DD0933301C0933D
:100280003201DF91CF91089524E0E8CFCE01880FAD
:10029000892F881F990B91958F77809380098C2FD8
:1002A0008F7780938109611113C085E08093820963
:1002B0001092830944E060E879E082EA99E00E94C4
:1002C0006A0DD0933301C0933201DF91CF9108952D
:1002D00086E0ECCF0F931F93CF93DF93CDB7DEB7BC
:1002E000A8970FB6F894DEBF0FBECDBF20E044E163
:1002F000BE016B5E7F4F80E999E00E944A0A882325
:1003000049F0809131019E89981709F479C19D893E
:10031000891759F0A8960FB6F894DEBF0FBECDBF6F
:10032000DF91CF911F910F9108953F89332309F4F5
:100330006BC110E080E090E02DEF210F223050F0F3
:10034000E5E1F0E0EC0FFD1FE10FF11D60810E947F
:1003500006093F891F5F131778F39C01492F50E06E
:10036000898D90E084179507A9F63327888D90E052
:100370002817390779F68A8D813409F479C18735D0
:1003800009F447C1823509F4B0C1863509F4ECC1DE
:10039000883509F45FC1833509F0BCCF9D89809110
:1003A00031019813B7CF85E080932A018E89E82F19
:1003B000F0E0EC5CFE4F9CE390832B8D30E0322F1D
:1003C00022279C8D290F311D3A83298390912E017C
:1003D000992309F481C13F773A832983203197E239
:1003E000390708F076C12436310518F0306C3A83AD
:1003F00029839D8D9B834E8D50E060E070E0342F0B
:100400002227112700274F8D50E060E070E0BA01ED
:1004100055274427400F511F621F731F99A1490F91
:10042000511D611D711D28A130E0322F2227420F7E
:10043000531F611D711D8A019B010E711127222717
:1004400033273695279517950795942F9170929598
:10045000907F092B0C838A019B0195E036952795A7
:10046000179507959A95D1F70F700D838A019B0117
:10047000E9E03695279517950795EA95D1F70F701E
:100480000E838A019B01FDE0369527951795079508
:10049000FA95D1F70F83A5E176956795579547951E
:1004A000AA95D1F74887BE016F5F7F4F0E94380E33
:1004B000182F082F0170837009F467C189819A8110
:1004C0006B810E94F800002309F427C180912E015E
:1004D000882309F46FC184EE8093800980E28093C1
:1004E000810989819A8190938209809383098C8103
:1004F0008093840945E060E879E082EA99E00E940F
:100500006A0D002309F40BC180912E01882309F4A0
:100510009DC184EE8093800981E280938109898165
:100520009A8190938209809383098D8180938409B5
:1005300045E060E879E082EA99E00E946A0D0023D4
:1005400009F4EFC080912E01882309F45CC184EE88
:100550008093800982E28093810989819A819093B6
:100560008209809383098E818093840945E060E845
:1005700079E082EA99E00E946A0D002309F4D3C071
:1005800080912E01882309F4D3C084EE80938009E2
:1005900083E28093810989819A8190938209809373
:1005A00083098F818093840945E060E879E082EADD
:1005B00099E00E946A0D002309F4B7C080912E01D2
:1005C000882309F467C084EE8093800988E28093D1
:1005D000810989819A819093820980938309888512
:1005E0008093840945E060E879E082EA99E00E941E
:1005F0006A0DBE016F5F7F4F8E890E947B0E8ACE8F
:1006000084E180932D0186CE40E050E020E030E090
:10061000A7CE8E89898388E08B8387E78E838B8D35
:100620006C8D90E00E94C00E8B8D8F839C8D98877F
:1006300081114CC080E090E00E94B80E809331019F
:100640008A834B81BE016F5F7F4F86E999E00E94EC
:10065000D00960CEF894A89584B7877F84BF809135
:10066000600088618093600088E080936000FFCF25
:100670008E898983809131018A8386E08B8381E62C
:100680008E8346E0BE016F5F7F4F86E999E00E944E
:10069000D00940CE89819A819C01220F232F221FED
:1006A000330B31952F77209380098F7780938109C1
:1006B00086E18093820988858093830944E060E81D
:1006C00079E082EA99E00E946A0D93CF809131012E
:1006D000B7CF2FE037EE8BCE37FD4DC020313742FC
:1006E00008F487CE2FE037E282CE8E89898380910D
:1006F00031018A8388E08B8382E78E838B8D8F83A1
:1007000090E00E94B80E888748E0BE016F5F7F4F7F
:1007100086E999E00E94D009FDCD12FDD7CE13FDE8
:10072000F3CE14FD0FCF15FD2BCF16FD47CF61CFB4
:1007300089819A819C01220F232F221F330B31952F
:100740002F77209380098F778093810985E18093AB
:1007500082098F818093830944E060E879E082EA2E
:1007600099E00E946A0D27CFBE016F5F7F4F8E898F
:100770000E948B0066CF3F772038310508F45FC0B8
:100780002FEF37E23A83298334CE1123A1F18091F0
:100790002E0181112BC0812F8C7751F089819A8194
:1007A00020913201309133018217930709F088CEEE
:1007B00012FF4AC089819A819C01220F232F221F98
:1007C000330B31952F77209380098F7780938109A0
:1007D00087E0809382098C818093830944E060E8FC
:1007E00079E082EA99E00E946A0D8BCE12FD73CE09
:1007F00013FD8FCE96CF6B8189819A810E94F8007C
:10080000011164CE8ECF89819A819C01220F232F02
:10081000221F330B31952F77209380098F77809398
:10082000810989E0809382098E818093830944E065
:1008300060E879E082EA99E00E946A0D9ECE205835
:10084000384D3A832983D5CD13FF6BCF89819A81A7
:100850009C01220F232F221F330B31952F772093DA
:1008600080098F778093810988E0809382098D8148
:100870008093830944E060E879E082EA99E00E948D
:100880006A0D5DCE1F920F920FB60F9211248F93B7
:100890009F9380917F098F5F80937F098A3000F159
:1008A00010927F09809126019091270101969093E3
:1008B00027018093260180912D01882319F0815012
:1008C00080932D0180912C01882319F08150809311
:1008D0002C01809128018823F9F081508093280110
:1008E00080912B01882319F0815080932B018091F6
:1008F0002A01882319F0815080932A0180912901CF
:10090000882319F08150809329019F918F910F9036
:100910000FBE0F901F90189586E080932801E0CFBE
:1009200014BEA895E0E6F0E08081886180838EE0C7
:100930008083A89511B88FEF82B917B888B985B1AF
:10094000807F85B984B18F6084B925982D9A16BCB3
:1009500083EC87BD10927F09109227011092260127
:1009600082E084BD85E085BDEEE6F0E080818260B6
:1009700080830895CF93DF93D0B1D09526B1209591
:100980002295822F8373982F990F990F822F8C7C39
:1009900086958695892BC82FC575CC0F8A7A869542
:1009A000C82B80910001811104C0809125018D1711
:1009B000D1F06C2F607860932E018D2F8F730E9481
:1009C000F00C8C2F8F718053809331018C2F8072AB
:1009D00080932F01D0932501C09324011092000130
:1009E000DF91CF910895809124018C13E2CFF6CF4F
:1009F000CF93DF93CDB7DEB7A4970FB6F894DEBFE1
:100A00000FBECDBF0E949004A89540E16FED72E04B
:100A100086E999E00E94AA0940E267ED76E080E964
:100A200099E00E94AA0940E267EB74E082EA99E04B
:100A30000E944C0D48E06FE274E08CE999E00E945E
:100A40004C0D0E94BA040E94F0077894A895BE014C
:100A50006F5F7F4F8FEF0E948B004B81BE016F5FF6
:100A60007F4F86E999E00E94D009A89582E0E82EA0
:100A700095E0F92E24E1D22EA8950E94BA042FB752
:100A8000F89480912601909127012FBF0A9708F0D2
:100A9000D8C080E999E00E94C0098111C0C086E9F0
:100AA00099E00E94C0098111B6C080912E0188236F
:100AB00009F476C082EA99E00E94620D81116CC04F
:100AC0000E94700A8111E09229010E947D0A811121
:100AD000F0922B010E948A0A8111D0922C011D9B59
:100AE00028C080912901882309F4A7C083E00E94CF
:100AF0006B0080912B01882309F49BC081E00E9448
:100B00006B0080912A01882309F48FC082E00E9443
:100B10006B0080912C01811185C080912D0188236B
:100B200029F080912801833008F07CC00E94690080
:100B3000A3CF30B126B120952295822F8373982FB1
:100B4000990F990F822F8C7C86958695892B982FEB
:100B50009575990F8A7A8695892B803219F43B3FD7
:100B600009F4B0C00E94690080B1811104C086B14F
:100B7000882309F49DC080B18F3F21F486B18F3F57
:100B800009F4A3C081E00E947B0082E00E946B0018
:100B900083E00E947B0070CFA8950E94A90C90CFA3
:100BA0008CE999E00E94620D882309F483CF20E04C
:100BB00040E1BE016B5E7F4F8CE999E00E94C00D61
:100BC000882309F477CF888D813C09F488C0843D5F
:100BD00009F070CF898D8F732AE0829FC0011124A4
:100BE0009093020180930101809130018160809394
:100BF000300180912F01882309F45CCFCE0101964A
:100C00000E94D2004B81BE016F5F7F4F86E999E061
:100C10000E94D0094FCFA8950E941B0846CF0E9482
:100C20006A013DCF0E94670027CF82E00E947B00CF
:100C300070CF81E00E947B0064CF83E00E947B0044
:100C400058CFBE016F5F7F4F8FEF0E948B004B81AB
:100C5000BE016F5F7F4F86E999E00E94D00910E0E6
:100C600002C01F5FC1F0E12FF0E0EC5CFE4F80811D
:100C70008823B9F3815080838111F3CF812F0E94A3
:100C8000930E082F812F0E94890E602F60780E949A
:100C9000F8001F5F41F72FB7F894809126019091DB
:100CA00027010A9790932701809326012FBFF1CE49
:100CB00081E00E946B0082E00E947B0083E00E9442
:100CC0007B00DACE0E9467004FCF81E00E947B005C
:100CD00082E00E947B0083E00E946B00CDCE8A8D73
:100CE00085FF33C08F73880F90EA980F892F880F84
:100CF000880F890F9B8D95FF32C09F73980F30ED41
:100D0000390F309379098D8D85FF27C08F73880F38
:100D10008056282F220F220F820F2E8D25FF1BC0F9
:100D20002F738053280F209378098F8D85FD0FC076
:100D30008F778134B1F48091300188603C3008F4C1
:100D400055CF9C539093790951CF8F77CCCF809119
:100D50003001877F4BCF2F77E4CF8F77D8CF9F7726
:100D6000CDCF8035A1F78091300188603C3008F00C
:100D70003DCF94529093790939CF1F920F920FB6BD
:100D80000F9211240BB60F922F933F934F935F93C3
:100D90006F937F938F939F93AF93BF93EF93FF9343
:100DA0008091C800887191F08091CE008093780284
:100DB00010927802109235028091CE008D3709F49E
:100DC0005CC08E3709F059C082E06DC08091CE00C2
:100DD0008D3709F47FC08E3709F462C090913502D7
:100DE00091FF4BC090FF05C020E282279E7F909329
:100DF0003502909178029F3308F074C0E091780238
:100E000091E09E0F90937802F0E0E758FD4F8083C9
:100E100080917802843009F474C080917802853022
:100E200060F12091780280913402281326C083E07B
:100E300080937802809178028217A0F490E0E0918C
:100E40007802F0E0E758FD4F8081980F809178029A
:100E50008F5F8093780280917802821780F39F3FA2
:100E600009F455C0E9E7F2E080E4DF011D928A95BC
:100E7000E9F71092780210923502FF91EF91BF913D
:100E8000AF919F918F917F916F915F914F913F9122
:100E90002F910F900BBE0F900FBE0F901F901895C3
:100EA0008091350282601092780290E4E9E7F2E0E6
:100EB000DF011D929A95E9F780933502E09178025F
:100EC00081E08E0F80937802F0E0E758FD4F8EE7C7
:100ED0008083D3CF8091350281FFCFCF8160809313
:100EE0003502CBCF809135028D7F809335021092F1
:100EF000780280E4E9E7F2E0DF011D928A95E9F7E4
:100F0000BCCF80917B028C5F8093340286CF88E0D7
:100F10008093780280917C02803849F1813809F011
:100F2000A1CFE0917802F0E0E958FD4F2081E091F7
:100F30007802F0E0E758FD4F82818431E0F4E091DF
:100F40007802F0E0E758FD4F42816091780270E04E
:100F500067587D4F80E999E00E94C809E0917802C6
:100F6000F0E0E958FD4F8081809303017BCF8EE054
:100F700080937802D6CF44E1E8CF1F920F920FB64C
:100F80000F9211240BB60F928F939F93EF93FF93C1
:100F9000E091370281E08E0F80933702F0E0E85C49
:100FA000FD4F80818093CE00909137028091360270
:100FB000981720F480913702803438F08091C9006E
:100FC0008F7D8093C90010923702FF91EF919F911E
:100FD0008F910F900BBE0F900FBE0F901F90189522
:100FE0008FEF80930301559A5D988AB1837F8AB908
:100FF0001092780280E4E9E7F2E0DF01982F1D9279
:101000009A95E9F710923702E8E3F2E0DF011D92CA
:101010008A95E9F78AE090E09093CD008093CC0028
:101020001092C800E9ECF0E0108286E08093CA00DC
:1010300088E980830895AF92BF92CF92DF92EF92BA
:10104000FF920F931F93CF93DF93CDB7DEB76E97C9
:101050000FB6F894DEBF0FBECDBF86E999E00E94BF
:10106000C009E82E882349F08091C900282F2072FA
:10107000E22E85FF14C0EE24E3948E2D6E960FB6FB
:10108000F894DEBF0FBECDBFDF91CF911F910F91BE
:10109000FF90EF90DF90CF90BF90AF9008958E01BA
:1010A0000F5F1F4F8EE1D8011D928A95E9F78EE7F9
:1010B000898381E08C838FEF8E838F8321E046E1EB
:1010C000BE01675F7F4F86E999E00E944A0AAB84C0
:1010D00085E08A0D8B83B4E0BA1508F092C0FE015A
:1010E00039966F018DEFB82EBA0C9DEFF92E80E086
:1010F00090E0F1E0FF1520F4D6016C910E94060902
:10110000F394BFEFCB1ADB0AFB10F3CF8C879D87DC
:101110004A2D50E0BA01695F7F4F23E030E090E054
:1011200083E0F801E20FF31F2081920F8F5F282FD9
:1011300030E062177307ACF7485F5F4FF801E40FC8
:10114000F51F909590831092360280E4E8E3F2E078
:10115000DF011D928A95E9F7E091360281E08E0F5A
:1011600080933602F0E0E85CFD4F8EE7808321E05B
:1011700030E081E07DE760E212C09131D9F0E0918A
:10118000360221E02E0F20933602F0E0E85CFD4F9E
:1011900090838F5F282F30E04217530734F1F80116
:1011A000E20FF31F9081933129F038F323E8290FE0
:1011B000223028F7E091360221E02E0F20933602EC
:1011C000F0E0E85CFD4F7083E091360221E02E0FE5
:1011D00020933602F0E09627E85CFD4F90838F5F06
:1011E000282F30E042175307D4F61092370286E9D1
:1011F00099E00E94530A8091C90080628093C900DF
:101200003CCF86E999E00E94530A37CF41E0413054
:1012100021F1292F22959295907F582F5295507F3A
:1012200026272F7030E0F901EC5EFE4F82958F701B
:10123000982B80819827F901EC5FFE4F80818527EC
:10124000423011F04F5FE3CF292F30E0322F2227B9
:10125000A901480F511DCA010895E92FE627392F2A
:101260003295307F582F5295507FE295EF70F0E025
:10127000DF01AC5EBE4F82958F70832B9C919827C7
:10128000EC5FFE4F808185274F5FC1CFFC012FB7F8
:10129000F89490818181981B892F65810E949C0E12
:1012A000892F2FBF0895CF92DF92EF92FF920F9375
:1012B0001F93CF93DF931F92CDB7DEB76C014531FB
:1012C00008F044E1D6018C911396ED90FC901497B0
:1012D000B5E18B9FE00CF11C1124042F10E0A80154
:1012E000C70129830E94A80E44E150E0401B510B26
:1012F00060E070E0C701800F911F0E94B10EF601FF
:1013000080810380F481E02D95E1899FE00DF11D3E
:1013100011242981248BD6018C918F5F8C93159693
:101320009C911597891708F01C928FB7F894F601D5
:1013300020819181291302C091E092838FBF81E0C7
:101340000F90DF91CF911F910F91FF90EF90DF9061
:10135000CF900895CF93FC01CB01CFB7F89474835D
:101360006383458311821082128225E1429FA0018E
:10137000112460E070E00E94B10ECFBFCF910895BC
:10138000FC012281222311F0858108950C944609E5
:10139000FC013281332311F080E008950C9453094D
:1013A000FC012281222311F080E008950C9453095E
:1013B000AF92BF92CF92DF92EF92FF920F931F9363
:1013C000CF93DF93EC016B01B42EA22EE42EF12C0F
:1013D000A70160E070E0C6010E94B10E0115110581
:1013E00011F0F80110828A81882309F44FC08D81A1
:1013F0008823A1F1EB81FC818981DF0195E1899F3F
:10140000A00DB11D112412968C91B81690F589810A
:10141000BF0195E1899F600D711D1124A701C601CF
:101420000E94A80E0115110559F08981EB81FC81FC
:1014300095E1899FE00DF11D11248489F8018083D5
:10144000A11022C08FB7F89499819F5F99832D8155
:10145000921708F019821A828FBF81E0DF91CF9135
:101460001F910F91FF90EF90DF90CF90BF90AF90C2
:1014700008958981DF0195E1899FA00DB11D112497
:101480001296EC90F12CC3CF81E0E8CFCE010E9400
:101490004609AECF0F931F9300E010E00E94D809D9
:1014A0001F910F910895CF93DF93EC018A818823D8
:1014B00099F08D81882359F08FB7F89499819F5FB7
:1014C00099832D81921730F41A828FBF81E0DF91CA
:1014D000CF9108951982F8CFCE010E944609EACF34
:1014E0009091DE02892F807496FF06C08091DE0203
:1014F0008F7B8093DE0281E008959091DE02892F38
:10150000807295FF06C08091DE028F7D8093DE029F
:1015100081E008959091DE02892F807194FF06C0CA
:101520008091DE028F7E8093DE0281E00895E0EC00
:10153000F0E08081806480835E9AE1ECF0E080815D
:101540008F7780838081806280838091DE028260D9
:101550008093DE0208951F920F920FB60F9211240E
:101560000BB60F922F933F934F935F936F937F939D
:101570008F939F93AF93BF93EF93FF93E0E7F0E0D8
:1015800080818D7F80830E94970AFF91EF91BF91A8
:10159000AF919F918F917F916F915F914F913F910B
:1015A0002F910F900BBE0F900FBE0F901F901895AC
:1015B0001F920F920FB60F9211240BB60F922F931A
:1015C0003F934F935F936F937F938F939F93AF93CB
:1015D000BF93CF93EF93FF938091C000887129F15F
:1015E000C091C6008091B902282F30E08F5FF901C9
:1015F000E354FD4FC083803108F45CC08FE08093DA
:10160000B902FF91EF91CF91BF91AF919F918F91CF
:101610007F916F915F914F913F912F910F900BBEF2
:101620000F900FBE0F901F9018958091DE0282FFE1
:101630002BC08091C100C091C60081FF52C09C2F79
:101640009F718C2F082E82958025082E8695869571
:1016500080258F5F81FD31C08C2F807671F5809160
:10166000BA0298133EC081E08093DD021092B2006E
:10167000B99A809170008260809370008091B90265
:10168000282F30E08F5FB3CFC091C6008C2F807CB5
:10169000803869F18091B902813029F58091BD02CD
:1016A000803809F47AC021E030E082E0F901E354A7
:1016B000FD4FC0838093B902A4CF8C2F082E829552
:1016C0008025082E8695869580258F5F81FB2227B1
:1016D00020F930E081FD05C08C2F8076803409F43C
:1016E0004AC08091B902282F30E08F5F80CF90915F
:1016F000C0028BEE890F823008F457C09B3CA1F1E9
:1017000080E4890F883030F58091B902843010F080
:101710008C3048F39C3C01F12091BA0230E08C2FD0
:101720008F7390E02817390709F448C08091BD02F3
:10173000803809F469C08F739091BA02891709F44F
:1017400054C08091DE028D7F8093DE0281E0E0E074
:10175000F0E0ADCF983CF1F68091B9028430E1F62B
:1017600085E0E4E0F0E0A3CF8091B9029CEF980F10
:10177000993090F6B8CF4091BA02491709F45EC08B
:101780008091BD028F71841709F449C08091DE02F7
:101790008D7F8093DE0281E089CF1092BE0210928D
:1017A000BF02C093C00284E085CF8091B90284302B
:1017B00008F4B0CF863008F0ADCF95CF8091DE022F
:1017C00080648093DE028091DE0287FFAFCF80913C
:1017D000DE0280628093DE021092B200B99A80919C
:1017E0007000826080937000A1CF8091B902823036
:1017F00008F4A7CF8091DE0281FDA3CF8091DE02A5
:1018000080618093DE029DCF4091B9026DEB72E062
:101810008CE999E00E946A0D8091BD028CCF809185
:10182000B902823008F4B2CF8091DE0281FDAECFE2
:101830008091DE0280618093DE02A8CF8091DE027B
:1018400080648093DE028091DE0287FF99CF8091D1
:10185000DE0280628093DE021092B200B99A80911B
:1018600070008260809370004091BA0289CF1F920D
:101870000F920FB60F9211240BB60F928F93EF9326
:10188000FF935E98E1ECF0E080818F718068808347
:101890008091DE028F778093DE021092DD02FF914D
:1018A000EF918F910F900BBE0F900FBE0F901F9076
:1018B00018951F920F920FB60F9211240BB60F922C
:1018C0008F939F93EF93FF938091DE0282FF2AC054
:1018D0008091DD02882331F180E28093C6008091FF
:1018E000DD028F5F8093DD028091DD02833078F02E
:1018F0008091C00080648093C0008091C1008F7D82
:101900008093C1008091C10080648093C100FF91E9
:10191000EF919F918F910F900BBE0F900FBE0F9084
:101920001F901895E091BB0281E08E0F8093BB025F
:10193000F0E0E353FD4F80818093C6008091BB02AD
:101940008031B0F68091BB029091BC029813DFCF3A
:10195000CFCFCF9382EA99E00E94620DC82F8823EF
:1019600099F18091DE0287FD32C021E040E16DEC0B
:1019700072E082EA99E00E94C00DC82F8093BC02F9
:10198000882349F1EDECF2E04FEF480F50E042536D
:101990005D4F90E021919227E417F507D9F781E098
:1019A0008C0F8093BC02EC2FF0E0E353FD4F90834B
:1019B0001092BB0282EA99E00E941B0E8091DE0227
:1019C00080688093DE02C0E08C2FCF910895C1E043
:1019D0008C2FCF91089582EA99E00E941B0EF4CFDC
:1019E0009091DE02662391F194609093DE02109252
:1019F000B2009091DE0292FD32C09AEF9093B30054
:101A000092E09093B00094E09093B1001092700037
:101A10002091DE0222FD25C021E830E03093C50090
:101A20002093C4001092C0001092C1009EE09093D9
:101A3000C2008093BA028091C10088698093C1007E
:101A40008AB18C7F8AB9569A5E9808959B7F90934D
:101A5000DE021092B2009091DE0292FFCECF91E0B2
:101A6000CDCF23E130E03093C5002093C400109225
:101A7000C0009093C10096E09093C200DACFFC01C1
:101A80002FB7F89490818181981B892F65810E94DE
:101A90009C0E892F2FBF0895CF93FC01CB01CFB7A8
:101AA000F89474836383458311821082128221E14A
:101AB000429FA001112460E070E00E94B10ECFBFF0
:101AC000CF910895FC012281222311F08581089590
:101AD0000C943F0DCF92DF92EF92FF921F93CF9322
:101AE000DF93FC012281222349F080E0DF91CF9136
:101AF0001F91FF90EF90DF90CF900895142F413108
:101B0000E8F5EC018881EB80FC80F1E18F9FE00C2F
:101B1000F11C1124C12ED12CA601C7010E94A80ED0
:101B200040E150E04C195D0960E070E0C7018C0DA8
:101B30009D1D0E94B10E8881EB81FC8191E1899FFE
:101B4000E00DF11D1124108B88818F5F88839D81AA
:101B5000891790F49FB7F89428818981281302C0CF
:101B600081E08A839FBF81E0DF91CF911F91FF9039
:101B7000EF90DF90CF9008951882ECCF10E1C1CFA5
:101B8000CF92DF92EF92FF920F931F93CF93DF9349
:101B9000EC016B01142F022FE42EF12CA70160E061
:101BA00070E0C6010E94B10E8A81882309F43FC00B
:101BB0008D81882389F1EB81FC818981DF0191E1AD
:101BC000899FA00DB11D112450968C91181758F0C3
:101BD0008981DF0191E1899FA00DB11D11245096EB
:101BE0001C91E12EF12C8981BF0191E1899F600D4B
:101BF000711D1124A701C6010E94A80E011115C074
:101C00008FB7F89499819F5F99832D81921708F07F
:101C100019821A828FBF812FDF91CF911F910F916F
:101C2000FF90EF90DF90CF900895812FF5CFCE01F8
:101C30000E943F0DBECFCF93DF93EC018A818823B2
:101C400099F08D81882359F08FB7F89499819F5F1F
:101C500099832D81921730F41A828FBF81E0DF9132
:101C6000CF9108951982F8CFCE010E943F0DEACF9F
:101C7000FB0198E0899F90011124D901A855B64F26
:101C800081E0608171814D915C916417750789F1E4
:101C90004281D901A855B64F12969C914913826092
:101CA0004381D901A855B64F13969C91491384607E
:101CB0004481D901A855B64F14969C914913886068
:101CC0004581D901A855B64F15969C91491380615D
:101CD0004681D901A855B64F16969C91491380624A
:101CE000D901A855B64F478117969C914913806436
:101CF000089580E0CDCF28E0829FC0011124DC014F
:101D0000A855B64F88E0FB0101900D928A95E1F746
:101D1000089528E0829FC0011124FC01E855F64F88
:101D200080819181089528E0829FC0011124FC01E7
:101D3000E855F64F82810895991B79E004C0991FF8
:101D4000961708F0961B881F7A95C9F78095089515
:101D5000FB01DC0102C001900D9241505040D8F7C8
:101D60000895DC0101C06D9341505040E0F70895A3
:101D7000F999FECF92BD81BDF89A992780B5089553
:101D8000262FF999FECF1FBA92BD81BD20BD0FB697
:101D9000F894FA9AF99A0FBE01960895F894FFCF35
:101DA000010A00FF00010302070604050E0F0D0CD7
:101DB00009080A0B00A0E04060C08020C0602080BD
:041DC000A00040E05F
:00000001FF
