:100000000C9446000C9465000C9465000C946500FB
:100010000C9465000C9465000C9465000C946500CC
:100020000C9465000C94EC090C9465000C9465002C
:100030000C9465000C9465000C9465000C946500AC
:100040000C9401040C9465000C9465000C946500FC
:100050000C94190A0C949A0B0C94780B0C94650070
:100060000C9465000C9465000C9465000C9465007C
:100070000C94FE050C94FE060C9465000C9465002F
:100080000C9465000C9465000C94650011241FBE4F
:10009000CFEFD0E4DEBFCDBF11E0A0E0B1E0ECEFE8
:1000A000FBE100E00BBF02C007900D92A432B10744
:1000B000D9F720E1A4E2B1E001C01D92A63AB2074F
:1000C000E1F70E94B5040C94FC0D0C940000813003
:1000D00061F048F0823019F0833019F00895299AC0
:1000E0000895289A08952B9A08952A9A08958130A0
:1000F00061F048F0823019F0833019F008952998A2
:100100000895289808952B9808952A980895FB013A
:10011000808380913101818380912E018823F9F0C1
:1001200084E1828386E7858380E8868387E9878305
:1001300086E8808781EF818781E08287138688E562
:10014000848780E5858782E5868785E4878793E5D0
:10015000908B9EE4918B828B84E5838B089583E161
:10016000828386E7858380E8868387E9878386E8BC
:10017000808781EF818781E08287138683E484878B
:1001800081E4858782E4868790E29787808B85E586
:10019000818B83E5828B80E2838B0895FC018091C3
:1001A000310181838FEF808382E1828384E58583BF
:1001B000168217821086809130018187A5E7B8E00A
:1001C00012968C911297828711968C911197838742
:1001D0008C91848780910101909102019587868797
:1001E0001786108A118A08950F931F93CF93DF9378
:1001F000CDB7DEB7A8970FB6F894DEBF0FBECDBF60
:1002000020E044E1BE016B5E7F4F8EE898E00E94E3
:100210008B09882349F0809131019E89981709F450
:1002200070C19D89891759F0A8960FB6F894DEBF62
:100230000FBECDBFDF91CF911F910F9108953F89E0
:10024000332309F462C110E080E090E02DEF210F2C
:10025000223050F0E5E1F0E0EC0FFD1FE10FF11D61
:1002600060810E9447083F891F5F131778F39C0144
:10027000492F50E0898D90E084179507A9F6332720
:10028000888D90E02817390779F68A8D813409F432
:1002900041C1873509F45EC1823509F4B7C186359D
:1002A00009F488C1883509F447C1833509F0BCCF0A
:1002B0009D89809131019813B7CF85E080932A0101
:1002C0008B8D90E0982F88272C8D820F911D9A831B
:1002D000898320912E01222309F463C19F779A8399
:1002E0008983803127E2920708F058C1843691054E
:1002F00018F0906C9A8389838D8D8B838E8D90E01E
:10030000A0E0B0E0782F6627552744278F8D90E036
:10031000A0E0B0E0DC0199278827840F951FA61F75
:10032000B71F29A1820F911DA11DB11D28A130E089
:10033000322F2227820F931FA11DB11DAC01BD01D9
:100340004E71552766277727769567955795479578
:10035000282F21702295207F422B4C83AC01BD01B8
:10036000F5E07695679557954795FA95D1F74F70D3
:100370004D83AC01BD0119E076956795579547957A
:100380001A95D1F74F704E83AC01BD010DE0769503
:100390006795579547950A95D1F74F8325E1B6950F
:1003A000A795979587952A95D1F78887BE016F5FA6
:1003B0007F4F8E890E94790D182F082F017083704E
:1003C00009F0B6C1112309F4B3C112FF16C180911F
:1003D0002E01882309F474C184EE80937E0880E2A4
:1003E00080937F0889819A81909380088093810807
:1003F0008C818093820845E06EE778E080EA98E09F
:100400000E94AB0C002309F4F8C080912E018823D0
:1004100009F43AC184EE80937E0881E280937F08DC
:1004200089819A8190938008809381088D8180933F
:10043000820845E06EE778E080EA98E00E94AB0C25
:10044000002309F4DCC080912E01882309F454C1F3
:1004500084EE80937E0882E280937F0889819A816E
:1004600090938008809381088E818093820845E074
:100470006EE778E080EA98E00E94AB0C002309F474
:10048000C0C080912E01882309F4E2C084EE8093DD
:100490007E0883E280937F0889819A819093800807
:1004A000809381088F818093820845E06EE778E031
:1004B00080EA98E00E94AB0C002309F4A4C080916C
:1004C0002E01882309F47DC084EE80937E0888E2A3
:1004D00080937F0889819A81909380088093810816
:1004E00088858093820845E06EE778E080EA98E0AE
:1004F0000E94AB0CBE016F5F7F4F8E890E94BC0DC6
:1005000093CE84E180932D018FCE40E050E020E037
:1005100030E0B0CE8E898983809131018A8386E074
:100520008B8381E68E8346E0BE016F5F7F4F84E957
:1005300098E00E94110978CEF894A89584B7877F37
:1005400084BF8091600088618093600088E0809320
:100550006000FFCF8E89898388E08B8387E78E8355
:100560008B8D6C8D90E00E94EE0D8B8D8F839C8D1A
:100570009887811110C080E090E00E94E60D809382
:1005800031018A834B81BE016F5F7F4F84E998E020
:100590000E94110949CE80913101F3CF8FE097EE8F
:1005A000A9CE97FD4BC08031974208F4A5CE8FE0CD
:1005B00097E2A0CEBE016F5F7F4F8E890E948700B9
:1005C000E1CF89819A819C01220F232F221F330BB7
:1005D00031952F7720937E088F7780937F0886E16F
:1005E0008093800888858093810844E06EE778E0F6
:1005F00080EA98E00E94AB0C7DCF13FD06CF14FD7E
:1006000022CF15FD3ECF16FD5ACF74CF8E89898338
:10061000809131018A8388E08B8382E78E838B8D82
:100620008F8390E00E94E60D888748E0BE016F5FEF
:100630007F4F84E998E00E941109F6CD9F778038BA
:10064000910508F4D7C08FEF97E29A83898354CE3F
:1006500089819A819C01220F232F221F330B319510
:100660002F7720937E088F7780937F0885E1809392
:1006700080088F818093810844E06EE778E080EA0B
:1006800098E00E94AB0C18CF89819A819C01220FBF
:10069000232F221F330B31952F7720937E088F77DE
:1006A00080937F0888E0809380088D818093810803
:1006B00044E06EE778E080EA98E00E94AB0CC0CEA0
:1006C00089819A819C01220F232F221F330B3195A0
:1006D0002F7720937E088F7780937F0887E0809321
:1006E00080088C818093810844E06EE778E080EA9E
:1006F00098E00E94AB0C86CE89819A819C01220FE2
:10070000232F221F330B31952F7720937E088F776D
:1007100080937F0889E0809380088E818093810890
:1007200044E06EE778E080EA98E00E94AB0CA6CE49
:100730008B81382F3F77682F607820912E0121110F
:1007400043C089819A81313021F1AC01440F452F9A
:10075000441F550B51954F7740937E088F778093B8
:100760007F08611114C083E080938008332311F067
:100770002FEF230F2093810844E06EE778E080EAB2
:1007800098E00E94AB0C002309F41FCE20CE84E039
:10079000EBCF9C01220F232F221F330B31952F7794
:1007A00020937E088F7780937F08611128C085E0B1
:1007B000809380081092810844E06EE778E080EA38
:1007C00098E00E94AB0CDFCF94EE90937E0893E10B
:1007D00090937F0899812A812093800890938108C3
:1007E0008093820845E06EE778E080EA98E00E9416
:1007F000AB0CC9CF8058984D9A8389837DCD86E014
:10080000D7CF1F920F920FB60F9211248F939F9301
:1008100080917D088F5F80937D088A3000F110926F
:100820007D088091260190912701019690932701E0
:100830008093260180912D01882319F081508093A7
:100840002D0180912C01882319F0815080932C0177
:10085000809128018823F9F08150809328018091AC
:100860002B01882319F0815080932B0180912A015C
:10087000882319F0815080932A01809129018823CF
:1008800019F08150809329019F918F910F900FBE95
:100890000F901F90189586E080932801E0CF14BE3A
:1008A000A895E0E6F0E08081886180838EE0808317
:1008B000A89511B88FEF82B917B888B985B1807F34
:1008C00085B984B18F6084B916BC83EC87BD109262
:1008D0007D08109227011092260182E084BD85E0F8
:1008E00085BDEEE6F0E08081826080830895CF933D
:1008F000DF93D0B1D09526B120952295822F8373B6
:10090000982F990F990F822F8C7C86958695892B2D
:10091000C82FC575CC0F8A7A8695C82B80910001A7
:10092000811104C0809125018D17D1F06C2F607862
:1009300060932E018D2F8F730E94310C8C2F8F713D
:100940008053809331018C2F807280932F01D0933C
:100950002501C093240110920001DF91CF910895E9
:10096000809124018C13E2CFF6CFCF93DF93CDB7E4
:10097000DEB7A4970FB6F894DEBF0FBECDBF0E94BE
:100980004F04A89540E16DED71E084E998E00E9484
:10099000EB0840E265ED75E08EE898E00E94EB0818
:1009A00040E265EB73E080EA98E00E948D0C48E03D
:1009B0006DE273E08AE998E00E948D0C0E94770452
:1009C0000E9431077894A895BE016F5F7F4F8FEF2B
:1009D0000E9487004B81BE016F5F7F4F84E998E0E2
:1009E0000E941109A89582E0F82E05E014E1A8956F
:1009F0000E9477042FB7F8948091260190912701E7
:100A00002FBF0A9708F097C08EE898E00E9401096E
:100A100081118EC084E998E00E940109811184C08F
:100A20008AE998E00E94A30C81114AC080EA98E00C
:100A30000E94A30C811140C00E94B1098111F09263
:100A400029010E94BE09811100932B010E94CB094C
:100A5000811110932C0180912901882349F183E0B1
:100A60000E94670080912B018823F1F081E00E94B1
:100A7000670080912A01882399F082E00E94670034
:100A800080912C01811108C080912D01882331F0C3
:100A900080912801833010F02B9AA9CF2B98A7CFF3
:100AA00082E00E947700ECCF81E00E947700E1CFE6
:100AB00083E00E947700D6CFA8950E94EA0BBCCFB6
:100AC00020E040E1BE016B5E7F4F8AE998E00E9422
:100AD000010D882309F4AACF888D813C09F441C017
:100AE000843D09F0A3CF898D8F732AE0829FC001D6
:100AF0001124909302018093010180913001816063
:100B00008093300180912F01882309F48FCFCE018B
:100B100001960E94CE004B81BE016F5F7F4F84E93A
:100B200098E00E94110982CFA8950E945C0778CFB7
:100B30000E94F4006FCFBE016F5F7F4F8FEF0E9466
:100B400087004B81BE016F5F7F4F84E998E00E9470
:100B500011098FB7F89410922701109226018FBFC8
:100B600053CF8A8D85FF3CC08F73880F8056282F06
:100B7000220F220F820F2B8D25FF30C02F73280FDD
:100B800030ED320F309377088D8D85FF25C08F7340
:100B9000880F8056982F990F990F890F9E8D95FF7A
:100BA00019C09F738053980F909376088F8D85FDA1
:100BB0000DC08F778134B1F48091300188603C3072
:100BC00008F49DCF2C532093770899CF8091300162
:100BD000877F95CF9F77E6CF8F77DACF2F77CFCFED
:100BE0008F77C3CF803591F78091300188603C309A
:100BF00008F085CF24522093770881CF1F920F925F
:100C00000FB60F9211240BB60F922F933F934F9371
:100C10005F936F937F938F939F93AF93BF93EF9364
:100C2000FF938091C800887191F08091CE008093ED
:100C3000760110927601109233018091CE008D37AB
:100C400009F45CC08E3709F059C082E06DC0809114
:100C5000CE008D3709F47FC08E3709F462C09091C1
:100C6000330191FF4BC090FF05C020E282279E7F99
:100C700090933301909176019F3308F074C0E09116
:100C8000760191E09E0F90937601F0E0E958FE4FD7
:100C9000808380917601843009F474C0809176015C
:100CA000853060F12091760180913201281326C0B1
:100CB00083E080937601809176018217A0F490E022
:100CC000E0917601F0E0E958FE4F8081980F809125
:100CD00076018F5F8093760180917601821780F391
:100CE0009F3F09F455C0E7E7F1E080E4DF011D9282
:100CF0008A95E9F71092760110923301FF91EF91F6
:100D0000BF91AF919F918F917F916F915F914F9123
:100D10003F912F910F900BBE0F900FBE0F901F9021
:100D200018958091330182601092760190E4E7E794
:100D3000F1E0DF011D929A95E9F780933301E0918C
:100D4000760181E08E0F80937601F0E0E958FE4F46
:100D50008EE78083D3CF8091330181FFCFCF816035
:100D600080933301CBCF809133018D7F809333010A
:100D70001092760180E4E7E7F1E0DF011D928A95A9
:100D8000E9F7BCCF809179018C5F8093320186CFE7
:100D900088E08093760180917A01803849F181382A
:100DA00009F0A1CFE0917601F0E0EB58FE4F2081F1
:100DB000E0917601F0E0E958FE4F82818431E0F461
:100DC000E0917601F0E0E958FE4F428160917601B2
:100DD00070E069587E4F8EE898E00E940909E09122
:100DE0007601F0E0EB58FE4F8081809303017BCFCA
:100DF0008EE080937601D6CF44E1E8CF1F920F9228
:100E00000FB60F9211240BB60F928F939F93EF930F
:100E1000FF93E091350181E08E0F80933501F0E082
:100E2000EA5CFE4F80818093CE00909135018091E5
:100E30003401981720F480913501803438F0809186
:100E4000C9008F7D8093C90010923501FF91EF9109
:100E50009F918F910F900BBE0F900FBE0F901F9020
:100E600018958FEF80930301559A5D988AB1837F1F
:100E70008AB91092760180E4E7E7F1E0DF01982F6C
:100E80001D929A95E9F710923501E6E3F1E0DF0152
:100E90001D928A95E9F78AE090E09093CD008093C7
:100EA000CC001092C800E9ECF0E0108286E080935C
:100EB000CA0088E980830895AF92BF92CF92DF92F3
:100EC000EF92FF920F931F93CF93DF93CDB7DEB7CF
:100ED0006E970FB6F894DEBF0FBECDBF84E998E0E1
:100EE0000E940109E82E882349F08091C900282F2B
:100EF0002072E22E85FF14C0EE24E3948E2D6E96B0
:100F00000FB6F894DEBF0FBECDBFDF91CF911F911A
:100F10000F91FF90EF90DF90CF90BF90AF9008952A
:100F20008E010F5F1F4F8EE1D8011D928A95E9F760
:100F30008EE7898381E08C838FEF8E838F8321E01E
:100F400046E1BE01675F7F4F84E998E00E948B090C
:100F5000AB8485E08A0D8B83B4E0BA1508F092C0AB
:100F6000FE0139966F018DEFB82EBA0C9DEFF92E68
:100F700080E090E0F1E0FF1520F4D6016C910E9432
:100F80004708F394BFEFCB1ADB0AFB10F3CF8C8733
:100F90009D874A2D50E0BA01695F7F4F23E030E022
:100FA00090E083E0F801E20FF31F2081920F8F5F42
:100FB000282F30E062177307ACF7485F5F4FF801E6
:100FC000E40FF51F909590831092340180E4E6E3DE
:100FD000F1E0DF011D928A95E9F7E091340181E0AB
:100FE0008E0F80933401F0E0EA5CFE4F8EE7808341
:100FF00021E030E081E07DE760E212C09131D9F07C
:10100000E091340121E02E0F20933401F0E0EA5CFE
:10101000FE4F90838F5F282F30E04217530734F143
:10102000F801E20FF31F9081933129F038F323E8A0
:10103000290F223028F7E091340121E02E0F209370
:101040003401F0E0EA5CFE4F7083E091340121E06E
:101050002E0F20933401F0E09627EA5CFE4F908338
:101060008F5F282F30E042175307D4F610923501D6
:1010700084E998E00E9494098091C900806280937D
:10108000C9003CCF84E998E00E94940937CF41E041
:10109000413021F1292F22959295907F582F52951A
:1010A000507F26272F7030E0F901EC5EFE4F8295CD
:1010B0008F70982B80819827F901EC5FFE4F80811B
:1010C0008527423011F04F5FE3CF292F30E0322FD8
:1010D0002227A901480F511DCA010895E92FE627CB
:1010E000392F3295307F582F5295507FE295EF700F
:1010F000F0E0DF01AC5EBE4F82958F70832B9C9138
:101100009827EC5FFE4F808185274F5FC1CFFC01A0
:101110002FB7F89490818181981B892F65810E9457
:10112000CA0D892F2FBF0895CF92DF92EF92FF92C1
:101130000F931F93CF93DF931F92CDB7DEB76C0150
:10114000453108F044E1D6018C911396ED90FC9066
:101150001497B5E18B9FE00CF11C1124042F10E0D3
:10116000A801C70129830E94D60D44E150E0401B2D
:10117000510B60E070E0C701800F911F0E94DF0DEE
:10118000F60180810380F481E02D95E1899FE00DD7
:10119000F11D11242981248BD6018C918F5F8C93B2
:1011A00015969C911597891708F01C928FB7F894A3
:1011B000F60120819181291302C091E092838FBFB3
:1011C00081E00F90DF91CF911F910F91FF90EF90F1
:1011D000DF90CF900895CF93FC01CB01CFB7F89467
:1011E00074836383458311821082128225E1429FBA
:1011F000A001112460E070E00E94DF0DCFBFCF910D
:101200000895FC012281222311F0858108950C9418
:101210008708FC013281332311F080E008950C949B
:101220009408FC012281222311F080E008950C949F
:101230009408AF92BF92CF92DF92EF92FF920F93FA
:101240001F93CF93DF93EC016B01B42EA22EE42EFB
:10125000F12CA70160E070E0C6010E94DF0D0115CE
:10126000110511F0F80110828A81882309F44FC01A
:101270008D818823A1F1EB81FC818981DF0195E1DA
:10128000899FA00DB11D112412968C91B81690F56E
:101290008981BF0195E1899F600D711D1124A7010E
:1012A000C6010E94D60D0115110559F08981EB8107
:1012B000FC8195E1899FE00DF11D11248489F801DD
:1012C0008083A11022C08FB7F89499819F5F998382
:1012D0002D81921708F019821A828FBF81E0DF9169
:1012E000CF911F910F91FF90EF90DF90CF90BF9023
:1012F000AF9008958981DF0195E1899FA00DB11D0F
:1013000011241296EC90F12CC3CF81E0E8CFCE01EE
:101310000E948708AECF0F931F9300E010E00E9459
:1013200019091F910F910895CF93DF93EC018A81E2
:10133000882399F08D81882359F08FB7F89499818B
:101340009F5F99832D81921730F41A828FBF81E0BD
:10135000DF91CF9108951982F8CFCE010E948708BE
:10136000EACF9091DC01892F807496FF06C08091AE
:10137000DC018F7B8093DC0181E008959091DC019A
:10138000892F807295FF06C08091DC018F7D80934C
:10139000DC0181E008959091DC01892F807194FF38
:1013A00006C08091DC018F7E8093DC0181E008958E
:1013B000E0ECF0E08081806480835E9AE1ECF0E014
:1013C00080818F7780838081806280838091DC013F
:1013D00082608093DC0108951F920F920FB60F92E6
:1013E00011240BB60F922F933F934F935F936F93FC
:1013F0007F938F939F93AF93BF93EF93FF93E0E718
:10140000F0E080818D7F80830E94D809FF91EF9169
:10141000BF91AF919F918F917F916F915F914F910C
:101420003F912F910F900BBE0F900FBE0F901F900A
:1014300018951F920F920FB60F9211240BB60F92B0
:101440002F933F934F935F936F937F938F939F93CC
:10145000AF93BF93CF93EF93FF938091C0008871B8
:1014600029F1C091C6008091B701282F30E08F5F2D
:10147000F901E554FE4FC083803108F45CC08FE071
:101480008093B701FF91EF91CF91BF91AF919F9161
:101490008F917F916F915F914F913F912F910F901D
:1014A0000BBE0F900FBE0F901F9018958091DC011E
:1014B00082FF2BC08091C100C091C60081FF52C045
:1014C0009C2F9F718C2F082E82958025082E869543
:1014D000869580258F5F81FD31C08C2F807671F5D8
:1014E0008091B80198133EC081E08093DB01109297
:1014F000B200B99A809170008260809370008091F0
:10150000B701282F30E08F5FB3CFC091C6008C2F7A
:10151000807C803869F18091B701813029F5809114
:10152000BB01803809F47AC021E030E082E0F901A3
:10153000E554FE4FC0838093B701A4CF8C2F082EB3
:1015400082958025082E8695869580258F5F81FB64
:10155000222720F930E081FD05C08C2F8076803471
:1015600009F44AC08091B701282F30E08F5F80CF07
:101570009091BE018BEE890F823008F457C09B3CDE
:10158000A1F180E4890F883030F58091B701843073
:1015900010F08C3048F39C3C01F12091B80130E010
:1015A0008C2F8F7390E02817390709F448C0809179
:1015B000BB01803809F469C08F739091B801891715
:1015C00009F454C08091DC018D7F8093DC0181E0BF
:1015D000E0E0F0E0ADCF983CF1F68091B7018430C7
:1015E000E1F685E0E4E0F0E0A3CF8091B7019CEF65
:1015F000980F993090F6B8CF4091B801491709F487
:101600005EC08091BB018F71841709F449C080913D
:10161000DC018D7F8093DC0181E089CF1092BC01D9
:101620001092BD01C093BE0184E085CF8091B701C7
:10163000843008F4B0CF863008F0ADCF95CF8091DC
:10164000DC0180648093DC018091DC0187FFAFCFF7
:101650008091DC0180628093DC011092B200B99A23
:1016600080917000826080937000A1CF8091B7015B
:10167000823008F4A7CF8091DC0181FDA3CF809157
:10168000DC0180618093DC019DCF4091B7016BEB61
:1016900071E08AE998E00E94AB0C8091BB018CCF8D
:1016A0008091B701823008F4B2CF8091DC0181FDD6
:1016B000AECF8091DC0180618093DC01A8CF809166
:1016C000DC0180648093DC018091DC0187FF99CF8D
:1016D0008091DC0180628093DC011092B200B99AA3
:1016E000809170008260809370004091B80189CF32
:1016F0001F920F920FB60F9211240BB60F928F9379
:10170000EF93FF935E98E1ECF0E080818F71806849
:1017100080838091DC018F778093DC011092DB0164
:10172000FF91EF918F910F900BBE0F900FBE0F9016
:101730001F9018951F920F920FB60F9211240BB69F
:101740000F928F939F93EF93FF938091DC0182FF21
:101750002AC08091DB01882331F180E28093C600AA
:101760008091DB018F5F8093DB018091DB0183300F
:1017700078F08091C00080648093C0008091C100A7
:101780008F7D8093C1008091C10080648093C100EF
:10179000FF91EF919F918F910F900BBE0F900FBE15
:1017A0000F901F901895E091B90181E08E0F809302
:1017B000B901F0E0E553FE4F80818093C60080912F
:1017C000B9018031B0F68091B9019091BA019813B6
:1017D000DFCFCFCFCF9380EA98E00E94A30CC82F31
:1017E000882399F18091DC0187FD32C021E040E13E
:1017F0006BEC71E080EA98E00E94010DC82F8093A5
:10180000BA01882349F1EBECF1E04FEF480F50E0CB
:1018100044535E4F90E021919227E417F507D9F7E2
:1018200081E08C0F8093BA01EC2FF0E0E553FE4F7E
:1018300090831092B90180EA98E00E945C0D80913B
:10184000DC0180688093DC01C0E08C2FCF9108958B
:10185000C1E08C2FCF91089580EA98E00E945C0D42
:10186000F4CF9091DC01662391F194609093DC01B8
:101870001092B2009091DC0192FD32C09AEF9093E9
:10188000B30092E09093B00094E09093B100109276
:1018900070002091DC0122FD25C021E830E030936A
:1018A000C5002093C4001092C0001092C1009EE0B9
:1018B0009093C2008093B8018091C10088698093A1
:1018C000C1008AB18C7F8AB9569A5E9808959B7F31
:1018D0009093DC011092B2009091DC0192FFCECF88
:1018E00091E0CDCF23E130E03093C5002093C400D8
:1018F0001092C0009093C10096E09093C200DACF9E
:10190000FC012FB7F89490818181981B892F658104
:101910000E94CA0D892F2FBF0895CF93FC01CB01E0
:10192000CFB7F89474836383458311821082128247
:1019300021E1429FA001112460E070E00E94DF0DD0
:10194000CFBFCF910895FC012281222311F0858120
:1019500008950C94800CCF92DF92EF92FF921F9328
:10196000CF93DF93FC012281222349F080E0DF91B5
:10197000CF911F91FF90EF90DF90CF900895142F9B
:101980004131E8F5EC018881EB80FC80F1E18F9F2B
:10199000E00CF11C1124C12ED12CA601C7010E941C
:1019A000D60D40E150E04C195D0960E070E0C701E0
:1019B0008C0D9D1D0E94DF0D8881EB81FC8191E1E2
:1019C000899FE00DF11D1124108B88818F5F888322
:1019D0009D81891790F49FB7F894288189812813F5
:1019E00002C081E08A839FBF81E0DF91CF911F9188
:1019F000FF90EF90DF90CF9008951882ECCF10E128
:101A0000C1CFCF92DF92EF92FF920F931F93CF93AC
:101A1000DF93EC016B01142F022FE42EF12CA701B0
:101A200060E070E0C6010E94DF0D8A81882309F41E
:101A30003FC08D81882389F1EB81FC818981DF01A1
:101A400091E1899FA00DB11D112450968C9118171A
:101A500058F08981DF0191E1899FA00DB11D11240A
:101A600050961C91E12EF12C8981BF0191E1899F53
:101A7000600D711D1124A701C6010E94D60D011130
:101A800015C08FB7F89499819F5F99832D81921724
:101A900008F019821A828FBF812FDF91CF911F9199
:101AA0000F91FF90EF90DF90CF900895812FF5CFA9
:101AB000CE010E94800CBECFCF93DF93EC018A81D0
:101AC000882399F08D81882359F08FB7F8949981F4
:101AD0009F5F99832D81921730F41A828FBF81E026
:101AE000DF91CF9108951982F8CFCE010E94800C2A
:101AF000EACFFB0198E0899F90011124D901AA55F2
:101B0000B74F81E0608171814D915C9164177507D9
:101B100089F14281D901AA55B74F12969C91491378
:101B200082604381D901AA55B74F13969C914913FE
:101B300084604481D901AA55B74F14969C914913EA
:101B400088604581D901AA55B74F15969C914913D4
:101B500080614681D901AA55B74F16969C914913C9
:101B60008062D901AA55B74F478117969C914913B6
:101B70008064089580E0CDCF28E0829FC0011124C9
:101B8000DC01AA55B74F88E0FB0101900D928A95C0
:101B9000E1F70895991B79E004C0991F961708F0A2
:101BA000961B881F7A95C9F780950895FB01DC0183
:101BB00002C001900D9241505040D8F70895DC01C9
:101BC00001C06D9341505040E0F70895F999FECF60
:101BD00092BD81BDF89A992780B50895262FF9996D
:101BE000FECF1FBA92BD81BD20BD0FB6F894FA9A00
:0C1BF000F99A0FBE01960895F894FFCFFB
:101BFC00010A00FF00010302070604050E0F0D0C7D
:101C0C0009080A0B00A0E04060C08020C060208062
:041C1C00A00040E004
:00000001FF
