:100000000C9446000C9465000C9465000C946500FB
:100010000C9465000C9465000C9465000C946500CC
:100020000C9465000C940D090C9465000C9465000B
:100030000C9465000C9465000C9465000C946500AC
:100040000C945A030C9465000C9465000C946500A4
:100050000C9465080C9454090C9434090C946500B4
:100060000C9465000C9465000C9465000C9465007C
:100070000C9401050C94F3050C9465000C94650038
:100080000C9465000C9465000C94650011241FBE4F
:10009000CFEFD0E4DEBFCDBF11E0A0E0B1E0E2E001
:1000A000F7E100E00BBF02C007900D92A432B10748
:1000B000D9F72DE0A4E2B1E001C01D92AB37B20741
:1000C000E1F70E94B1030C947F0B0C940000FC013B
:1000D0008091270181838FEF808382E1828384E591
:1000E0008583168217821086809126018187AEE46F
:1000F000B5E012968C911297828711968C91119788
:1001000083878C918487809101019091020195876A
:1001100086871786108A118A08950F931F93CF93AD
:10012000DF93CDB7DEB7A8970FB6F894DEBF0FBE4A
:10013000CDBF20E044E1BE016B5E7F4F83E695E0DA
:100140000E94ED07882351F0809127019E8998171E
:1001500029F09D899F3F69F0891759F0A8960FB63D
:10016000F894DEBF0FBECDBFDF91CF911F910F91ED
:1001700008952F89222309F456C110E040E050E091
:100180009DEF910F923060F0E5E1F0E0EC0FFD1F84
:10019000E10FF11D6081CA010E943907AC012F896E
:1001A0001F5F121768F3852F90E0298D30E0281724
:1001B0003907A1F65527888D90E04817590771F641
:1001C0008A8D813409F434C1873509F443C18235FD
:1001D00009F46FC1863509F429C2883509F45BC179
:1001E000833509F0BBCF9D89809127019813B6CF45
:1001F0008B8D90E0982F88272C8D820F911D9A83EC
:10020000898397FD07C28031974220F08FE097E203
:100210009A8389838D8D8B838E8D90E0A0E0B0E0F2
:10022000782F6627552744278F8D90E0A0E0B0E017
:10023000DC0199278827840F951FA61FB71F29A1C6
:10024000820F911DA11DB11D28A130E0322F222760
:10025000820F931FA11DB11DAC01BD014E71552729
:10026000662777277695679557954795282F2170AC
:100270002295207F422B4C83AC01BD0105E0769591
:100280006795579547950A95D1F74F704D83AC0107
:10029000BD0129E076956795579547952A95D1F741
:1002A0004F704E83AC01BD013DE076956795579543
:1002B00047953A95D1F74F8345E1B695A795979520
:1002C00087954A95D1F78887BE016F5F7F4F8E89EA
:1002D0000E94FC0A182F082F0170837009F001C1D9
:1002E000112309F4FEC012FF1DC089819A819C016F
:1002F000220F232F221F330B31952F772093570581
:100300008F778093580587E0809359058C8180937F
:100310005A0544E067E575E085E795E00E942E0AFE
:10032000011124C113FF1DC089819A819C01220FF4
:10033000232F221F330B31952F77209357058F776B
:100340008093580588E0809359058D8180935A05E4
:1003500044E067E575E085E795E00E942E0A01110B
:1003600020C114FF1DC089819A819C01220F232F77
:10037000221F330B31952F77209357058F7780936A
:10038000580589E0809359058E8180935A0544E091
:1003900067E575E085E795E00E942E0A01111CC112
:1003A00015FF1DC089819A819C01220F232F221FD6
:1003B000330B31952F77209357058F77809358050E
:1003C00085E1809359058F8180935A0544E067E564
:1003D00075E085E795E00E942E0A011102C016FF24
:1003E0001BC089819A819C01220F232F221F330B6E
:1003F00031952F77209357058F778093580586E1A5
:1004000080935905888580935A0544E067E575E037
:1004100085E795E00E942E0ABE016F5F7F4F8E89AF
:100420000E943F0B9BCE80E090E040E050E0BDCECC
:100430008E898983809127018A8386E08B8381E678
:100440008E8346E0BE016F5F7F4F89E695E00E9494
:10045000A40784CE8E89898388E08B8387E78E8387
:100460008B8D6C8D90E00E94710B8B8D8F839C8D9A
:100470009887811106C180E090E00E94690B80930B
:1004800027018A834B81BE016F5F7F4F89E695E02C
:100490000E94A40763CEF894A89584B7877F84BF91
:1004A0008091600088618093600088E080936000A4
:1004B000FFCF8E898983809127018A8388E08B838F
:1004C00082E78E838B8D8F8390E00E94690B8887F3
:1004D00048E0BE016F5F7F4F89E695E00E94A40768
:1004E0003DCE9B81892F8F77907829813A81A90110
:1004F000440F452F441F550B51954F774093570597
:100500002F7720935805813009F4BEC091118CC01B
:1005100093E090935905882309F47AC08150809321
:100520005A0544E067E575E085E795E00E942E0AEC
:10053000002309F4D8CE89819A819C01220F232FB0
:10054000221F330B31952F77209357058F77809398
:10055000580587E0809359058C8180935A0544E0C3
:1005600067E575E085E795E00E942E0A89819A810A
:100570009C01220F232F221F330B31952F772093BD
:1005800057058F778093580588E0809359058D81B2
:1005900080935A0544E067E575E085E795E00E94A1
:1005A0002E0A89819A819C01220F232F221F330B4F
:1005B00031952F77209357058F778093580589E0E1
:1005C000809359058E8180935A0544E067E575E074
:1005D00085E795E00E942E0A89819A819C01220F6D
:1005E000232F221F330B31952F77209357058F77B9
:1005F0008093580585E1809359058F8180935A0532
:1006000044E067E575E085E795E00E942E0AE9CEB3
:1006100080E085CF9F778038910508F444C08FEF44
:1006200097E29A838983F6CD94E073CF8E8989838C
:10063000809127018A8383E18B8386E78E8380E81C
:100640008F8386E6888782E789878CEA8A8783E0BA
:100650008B8781E08C8783E48D8781E48E8782E4B9
:100660008F8790E2988B898B85E58A8B83E58B8BCE
:1006700043E1BE016F5F7F4F89E695E00E94A407CA
:100680006DCD80912701FDCE911112C085E0809340
:10069000590510925A0544E067E575E085E795E055
:1006A0000E942E0A45CF8058984D9A838983B2CDF7
:1006B00086E0EDCF1F920F920FB60F9211248F9309
:1006C0009F93809156058F5F809356058A3058F02E
:1006D00010925605809124019091250101969093E6
:1006E0002501809324019F918F910F900FBE0F9051
:1006F0001F90189514BEA895E0E6F0E0808188610F
:1007000080838EE08083A89587B1877087B988B190
:10071000886F88B916BC83EC87BD1092560510927D
:1007200025011092240182E084BD85E085BDEEE6BE
:10073000F0E08081826080830895CF93C6B1C69532
:10074000C695C695809100018C1749F08C2F0E94A8
:10075000DD0980ED8C0F80932701C0930001CF91BC
:100760000895CF93DF93CDB7DEB7A0970FB6F89477
:10077000DEBF0FBECDBF0E947A03A89540E16AECB0
:1007800071E089E695E00E94860740E16EE074E042
:1007900083E695E00E94860740E16EE373E085E71B
:1007A00095E00E94100A44E06AE073E08FE695E06D
:1007B0000E94100A0E949D030E9426067894A89524
:1007C0008FEF8983809127018A8383E18B8386E77A
:1007D0008E8380E88F8386E6888782E789878CEA24
:1007E0008A8783E08B8781E08C8783E48D8781E42F
:1007F0008E8782E48F8790E2988B898B85E58A8B40
:1008000083E58B8B43E1BE016F5F7F4F89E695E007
:100810000E94A407A89555245A9483E1682E96E770
:10082000792E20E8822E36E6932E42E7A42E5CEA4B
:10083000B52E63E0C62EDD24D39473E4E72EE1E405
:10084000FE2E12E4F0E24F2EA8950E949D03279AF7
:100850002F9884B18F7984B985B1806685B903B149
:100860002FB7F89480912401909125012FBF0A970A
:1008700008F054C083E695E00E949C0781114BC0AC
:1008800089E695E00E949C07811141C08FE695E0C2
:100890000E94260A81110AC085E795E00E94260A77
:1008A000882391F2A8950E949009CECF20E04CE0D9
:1008B000BE016B5E7F4F8FE695E00E94840A88231D
:1008C00059F3302F3074888D813C09F44CC0843D3D
:1008D00019F7898D8F732AE0829FC00111249093AC
:1008E000020180930101809126018160809326019D
:1008F000332391F2CE0101960E9467004B81BE0125
:100900006F5F7F4F89E695E00E94A407C5CFA89549
:100910000E944E06BBCF0E948D00B2CF59828091BB
:1009200027018A836B827E828F829886A986BA8607
:10093000CB86DC86ED86FE861F87488A198B85E587
:100940008A8B83E58B8B43E1BE016F5F7F4F89E626
:1009500095E00E94A4078FB7F89410922501109299
:1009600024018FBF87CF8A8D85FF3DC08F73880F8D
:100970008056282F220F220F820F9B8D95FF31C0AA
:100980009F73292F280F40ED420F409350058D8D06
:1009900085FF25C08F73880F8056982F990F990F68
:1009A000890F9E8D95FF19C09F738053980F909368
:1009B0004F058F8D85FD0DC08F778134B1F4809107
:1009C000260188604C3008F490CF2C5320935005BA
:1009D0008CCF80912601877F88CF9F77E6CF8F7756
:1009E000DACF9F77CECF8F77C2CF803591F78091C6
:1009F000260188604C3008F078CF245220935005AF
:100A000074CF1F920F920FB60F9211240BB60F9254
:100A10002F933F934F935F936F937F938F939F9306
:100A2000AF93BF93EF93FF938091C800887191F0CB
:100A30008091CE0080936C0110926C01109229017C
:100A40008091CE008D3709F45CC08E3709F059C013
:100A500082E06DC08091CE008D3709F47FC08E3763
:100A600009F462C09091290191FF4BC090FF05C02D
:100A700020E282279E7F9093290190916C019F3301
:100A800008F074C0E0916C0191E09E0F90936C01AE
:100A9000F0E0E359FE4F808380916C01843009F4CB
:100AA00074C080916C01853060F120916C0180915F
:100AB0002801281326C083E080936C0180916C018B
:100AC0008217A0F490E0E0916C01F0E0E359FE4F52
:100AD0008081980F80916C018F5F80936C01809171
:100AE0006C01821780F39F3F09F455C0EDE6F1E0F9
:100AF00080E4DF011D928A95E9F710926C01109253
:100B00002901FF91EF91BF91AF919F918F917F91BB
:100B10006F915F914F913F912F910F900BBE0F906E
:100B20000FBE0F901F90189580912901826010923E
:100B30006C0190E4EDE6F1E0DF011D929A95E9F792
:100B400080932901E0916C0181E08E0F80936C010C
:100B5000F0E0E359FE4F8EE78083D3CF80912901E7
:100B600081FFCFCF816080932901CBCF8091290174
:100B70008D7F8093290110926C0180E4EDE6F1E015
:100B8000DF011D928A95E9F7BCCF80916F018C5FE0
:100B90008093280186CF88E080936C01809170015A
:100BA0008038D9F0813809F0A1CFE0916C01F0E0F4
:100BB000E359FE4F82818431A0F4E0916C01F0E0B2
:100BC000E359FE4F428160916C0170E063597E4FA2
:100BD00083E695E00E94A40789CF8EE080936C01A4
:100BE000E4CF44E1F0CF1F920F920FB60F92112481
:100BF0000BB60F928F939F93EF93FF93E0912B018E
:100C000081E08E0F80932B01F0E0E45DFE4F808148
:100C10008093CE0090912B0180912A01981720F4A7
:100C200080912B01803438F08091C9008F7D8093B2
:100C3000C90010922B01FF91EF919F918F910F901E
:100C40000BBE0F900FBE0F901F901895569A5E988E
:100C50008AB1837F8AB910926C0180E4EDE6F1E0FD
:100C6000DF01982F1D929A95E9F710922B01ECE283
:100C7000F1E0DF011D928A95E9F78AE090E0909318
:100C8000CD008093CC001092C800E9ECF0E0108217
:100C900086E08093CA0088E980830895AF92BF926E
:100CA000CF92DF92EF92FF920F931F93CF93DF9338
:100CB000CDB7DEB76E970FB6F894DEBF0FBECDBFCF
:100CC00089E695E00E949C07E82E882349F08091F0
:100CD000C900282F2072E22E85FF14C0EE24E39471
:100CE0008E2D6E960FB6F894DEBF0FBECDBFDF918E
:100CF000CF911F910F91FF90EF90DF90CF90BF9019
:100D0000AF9008958E010F5F1F4F8EE1D8011D92A5
:100D10008A95E9F78EE7898381E08C838FEF8E8354
:100D20008F8321E046E1BE01675F7F4F89E695E052
:100D30000E94ED07AB8485E08A0D8B83B4E0BA1581
:100D400008F092C0FE0139966F018DEFB82EBA0CF3
:100D50009DEFF92E80E090E0F1E0FF1520F4D60140
:100D60006C910E943907F394BFEFCB1ADB0AFB109A
:100D7000F3CF8C879D874A2D50E0BA01695F7F4F82
:100D800023E030E090E083E0F801E20FF31F2081E0
:100D9000920F8F5F282F30E062177307ACF7485F20
:100DA0005F4FF801E40FF51F9095908310922A0190
:100DB00080E4ECE2F1E0DF011D928A95E9F7E09131
:100DC0002A0181E08E0F80932A01F0E0E45DFE4F5E
:100DD0008EE7808321E030E081E07DE760E212C0B1
:100DE0009131D9F0E0912A0121E02E0F20932A01C0
:100DF000F0E0E45DFE4F90838F5F282F30E04217D4
:100E0000530734F1F801E20FF31F9081933129F079
:100E100038F323E8290F223028F7E0912A0121E056
:100E20002E0F20932A01F0E0E45DFE4F7083E091E5
:100E30002A0121E02E0F20932A01F0E09627E45D9D
:100E4000FE4F90838F5F282F30E042175307D4F670
:100E500010922B0189E695E00E9448088091C90014
:100E600080628093C9003CCF89E695E00E944808E3
:100E700037CF41E0413021F1292F22959295907F83
:100E8000582F5295507F26272F7030E0F901ED5EE4
:100E9000FE4F82958F70982B80819827F901ED5F26
:100EA000FE4F80818527423011F04F5FE3CF292F1D
:100EB00030E0322F2227A901480F511DCA010895A1
:100EC000E92FE627392F3295307F582F5295507FE2
:100ED000E295EF70F0E0DF01AD5EBE4F82958F705E
:100EE000832B9C919827ED5FFE4F808185274F5F74
:100EF000C1CFFC012FB7F89490818181981B892F75
:100F000065810E944D0B892F2FBF0895CF93FC015F
:100F1000CB01CFB7F8947483638345831182108229
:100F2000128224E1429FA001112460E070E00E943F
:100F3000620BCFBFCF910895FC012281222311F0D3
:100F4000858108950C947907EF92FF920F931F9378
:100F5000CF93DF93FC012281222341F080E0DF91D7
:100F6000CF911F910F91FF90EF900895453198F523
:100F7000EC018881EB80FC80F4E18F9FE00CF11C98
:100F80001124042F10E0A801C7010E94590B44E16D
:100F900050E0401B510B60E070E0C701800F911FD3
:100FA0000E94620B88818F5F88839D81891788F4F6
:100FB0009FB7F89428818981281302C081E08A8331
:100FC0009FBF81E0DF91CF911F910F91FF90EF9034
:100FD00008951882EDCF44E1CBCFCF92DF92EF920C
:100FE000FF920F931F93CF93DF93EC017B01D42EDD
:100FF000C22E042F10E0A80160E070E0C7010E943B
:10100000620B8A81882309F43FC08D81882331F1E6
:10101000EB81FC818981DF0194E1899FA00DB11DE5
:10102000112412968C91D81610F58981BF0194E194
:10103000899F600D711D1124A801C7010E94590BE1
:10104000C11020C08FB7F89499819F5F99832D813B
:10105000921708F019821A828FBF81E0DF91CF9139
:101060001F910F91FF90EF90DF90CF9008958981AD
:10107000DF0194E1899FA00DB11D112412960C91FE
:1010800010E0D3CF81E0EACFCE010E947907BECF36
:10109000CF93DF93EC018A81882399F08D81882397
:1010A00059F08FB7F89499819F5F99832D8192179A
:1010B00030F41A828FBF81E0DF91CF9108951982B9
:1010C000F8CFCE010E947907EACF1F920F920FB698
:1010D0000F9211240BB60F922F933F934F935F9370
:1010E0006F937F938F939F93AF93BF93CF93EF9320
:1010F000FF938091C000887139F5C091C6008C2F94
:10110000807C803821F18091AD01813009F44DC09F
:10111000E82FF0E08F5FEF54FE4FC0838093AD0166
:10112000FF91EF91CF91BF91AF919F918F917F915F
:101130006F915F914F913F912F910F900BBE0F9048
:101140000FBE0F901F9018958091C600E9CF909127
:10115000B4018BEE890F8230F0F09B3CE9F180E422
:10116000890F883050F1983CE9F48091AD018430CA
:1011700009F446C02091AF0130E08C2F8F7390E0CE
:101180002817390781F18091B1018038E9F181E0B8
:10119000E0E0F0E0C0CF8091AD01843018F08630FF
:1011A00008F4B6CF9C3C31F7E0CF8091B101803894
:1011B00059F082E0E1E0F0E0AECF8091AD01843003
:1011C00088F38C3078F7A4CF1092B2011092B3015B
:1011D00084E0E3E0F0E09FCF8091AD019CEF980FB9
:1011E000993040F695CF8091C90187FFCCCF1092FE
:1011F000B200B99A80917000826080937000C3CF72
:1012000085E0E4E0F0E087CF4091AD0161EB71E073
:101210008FE695E00E942E0ABACF1F920F920FB66A
:101220000F9211240BB60F928F93EF93FF93E0E789
:10123000F0E080818D7F8083E0ECF0E0808180644D
:1012400080835C9AE1ECF0E080818F7780838081FD
:1012500080628083FF91EF918F910F900BBE0F9072
:101260000FBE0F901F9018951F920F920FB60F92FE
:1012700011240BB60F928F93EF93FF935C98E1ECE0
:10128000F0E080818F71806880838091C9018F77C1
:101290008093C901FF91EF918F910F900BBE0F903A
:1012A0000FBE0F901F9018951F920F920FB60F92BE
:1012B00011240BB60F928F939F93EF93FF93E091BE
:1012C000AE0181E08E0F8093AE01F0E0E354FE4F5B
:1012D00080818093C6008091AE018C3088F490911B
:1012E000B0018091AE01981759F0FF91EF919F9155
:1012F0008F910F900BBE0F900FBE0F901F901895FF
:101300008091C00080648093C0008091C1008F7D77
:101310008093C1008091C10080648093C100E5CFBB
:10132000CF9385E795E00E94260AC82F8823C9F14C
:101330008091C90187FD38C021E04CE06DEB71E080
:1013400085E795E00E94840A8093B001C091B001C6
:10135000CC2371F18091B00190E0882361F080E0AE
:10136000E82FF0E0E354FE4F208192278F5F209119
:10137000B0018217A8F3E091B00181E08E0F809355
:10138000B001F0E0E354FE4F90831092AE0185E788
:1013900095E00E94DF0A8091C90180688093C901AD
:1013A000C0E08C2FCF910895C1E08C2FCF9108958C
:1013B00085E795E00E94DF0AF4CF1092B2009AEF21
:1013C0009093B30092E09093B00094E09093B100BA
:1013D0001092700021E830E03093C5002093C400E3
:1013E0001092C000E1ECF0E010829EE09093C20009
:1013F0008093AF018081886980838AB18C7F8AB9AC
:10140000549A5C980895FC012FB7F89490818181DB
:10141000981B892F65810E944D0B892F2FBF08953E
:10142000CF93FC01CB01CFB7F894748363834583DA
:101430001182108212822DE0429FA001112460E0EF
:1014400070E00E94620BCFBFCF910895FC01228112
:10145000222311F0858108950C94030ACF92DF9224
:10146000EF92FF921F93CF93DF93FC0122812223FF
:1014700049F080E0DF91CF911F91FF90EF90DF90D6
:10148000CF900895142F4D30E8F5EC018881EB8062
:10149000FC80FDE08F9FE00CF11C1124C12ED12CAB
:1014A000A601C7010E94590B4CE050E04C195D09A0
:1014B00060E070E0C7018C0D9D1D0E94620B888169
:1014C000EB81FC819DE0899FE00DF11D11241487C3
:1014D00088818F5F88839D81891790F49FB7F894E6
:1014E00028818981281302C081E08A839FBF81E01F
:1014F000DF91CF911F91FF90EF90DF90CF900895F3
:101500001882ECCF1CE0C1CFCF92DF92EF92FF9216
:101510000F931F93CF93DF93EC016B01142F022FD6
:10152000E42EF12CA70160E070E0C6010E94620B7E
:101530008A81882309F43FC08D81882389F1EB815A
:10154000FC818981DF019DE0899FA00DB11D1124DF
:101550001C968C91181758F08981DF019DE0899FB6
:10156000A00DB11D11241C961C91E12EF12C898136
:10157000BF019DE0899F600D711D1124A701C60167
:101580000E94590B011115C08FB7F89499819F5F84
:1015900099832D81921708F019821A828FBF812FAB
:1015A000DF91CF911F910F91FF90EF90DF90CF903F
:1015B0000895812FF5CFCE010E94030ABECFCF93AD
:1015C000DF93EC018A81882399F08D81882359F07B
:1015D0008FB7F89499819F5F99832D81921730F48A
:1015E0001A828FBF81E0DF91CF9108951982F8CFE1
:1015F000CE010E94030AEACFFB0198E0899F900187
:101600001124D901A558BA4F81E0608171814D91B3
:101610005C916417750789F14281D901A558BA4FC9
:1016200012969C91491382604381D901A558BA4F03
:1016300013969C91491384604481D901A558BA4FEF
:1016400014969C91491388604581D901A558BA4FD9
:1016500015969C91491380614681D901A558BA4FCE
:1016600016969C9149138062D901A558BA4F4781BB
:1016700017969C9149138064089580E0CDCF28E0AF
:10168000829FC0011124DC01A558BA4F88E0FB01FC
:1016900001900D928A95E1F70895991B79E004C0B5
:1016A000991F961708F0961B881F7A95C9F78095A1
:1016B0000895FB01DC0102C001900D9241505040A1
:1016C000D8F70895DC0101C06D9341505040E0F718
:1016D0000895F999FECF92BD81BDF89A992780B5FA
:1016E0000895262FF999FECF1FBA92BD81BD20BD66
:1016F0000FB6F894FA9AF99A0FBE01960895F894E5
:02170000FFCF19
:10170200FF0A0000010302070604050E0F0D0C0973
:10171200080A0B00A0E04060C08020C0602080A0CA
:041722000040E000A3
:00000001FF
